{
  "_format": "hh3-artifact-1",
  "contractName": "ClaimsRegistry",
  "sourceName": "contracts/ClaimsRegistry.sol",
  "abi": [
    {
      "inputs": [],
      "stateMutability": "nonpayable",
      "type": "constructor"
    },
    {
      "inputs": [
        {
          "internalType": "uint256",
          "name": "claimId",
          "type": "uint256"
        }
      ],
      "name": "ClaimAlreadyFinalized",
      "type": "error"
    },
    {
      "inputs": [],
      "name": "EmptyClaimHash",
      "type": "error"
    },
    {
      "inputs": [
        {
          "internalType": "uint16",
          "name": "fraudScore",
          "type": "uint16"
        }
      ],
      "name": "InvalidFraudScore",
      "type": "error"
    },
    {
      "inputs": [],
      "name": "NotAssessor",
      "type": "error"
    },
    {
      "inputs": [],
      "name": "NotOwner",
      "type": "error"
    },
    {
      "inputs": [
        {
          "internalType": "uint256",
          "name": "claimId",
          "type": "uint256"
        }
      ],
      "name": "UnknownClaim",
      "type": "error"
    },
    {
      "inputs": [],
      "name": "ZeroAddress",
      "type": "error"
    },
    {
      "anonymous": false,
      "inputs": [
        {
          "indexed": true,
          "internalType": "address",
          "name": "assessor",
          "type": "address"
        },
        {
          "indexed": false,
          "internalType": "bool",
          "name": "authorized",
          "type": "bool"
        }
      ],
      "name": "AssessorUpdated",
      "type": "event"
    },
    {
      "anonymous": false,
      "inputs": [
        {
          "indexed": true,
          "internalType": "uint256",
          "name": "claimId",
          "type": "uint256"
        },
        {
          "indexed": true,
          "internalType": "enum ClaimsRegistry.Status",
          "name": "newStatus",
          "type": "uint8"
        },
        {
          "indexed": true,
          "internalType": "address",
          "name": "assessor",
          "type": "address"
        },
        {
          "indexed": false,
          "internalType": "uint16",
          "name": "fraudScore",
          "type": "uint16"
        },
        {
          "indexed": false,
          "internalType": "uint256",
          "name": "timestamp",
          "type": "uint256"
        }
      ],
      "name": "ClaimAssessed",
      "type": "event"
    },
    {
      "anonymous": false,
      "inputs": [
        {
          "indexed": true,
          "internalType": "uint256",
          "name": "claimId",
          "type": "uint256"
        },
        {
          "indexed": true,
          "internalType": "address",
          "name": "claimant",
          "type": "address"
        },
        {
          "indexed": false,
          "internalType": "bytes32",
          "name": "claimHash",
          "type": "bytes32"
        },
        {
          "indexed": false,
          "internalType": "string",
          "name": "dataPointer",
          "type": "string"
        },
        {
          "indexed": false,
          "internalType": "uint256",
          "name": "timestamp",
          "type": "uint256"
        }
      ],
      "name": "ClaimSubmitted",
      "type": "event"
    },
    {
      "anonymous": false,
      "inputs": [
        {
          "indexed": true,
          "internalType": "address",
          "name": "previousOwner",
          "type": "address"
        },
        {
          "indexed": true,
          "internalType": "address",
          "name": "newOwner",
          "type": "address"
        }
      ],
      "name": "OwnershipTransferred",
      "type": "event"
    },
    {
      "inputs": [
        {
          "internalType": "uint256",
          "name": "claimId",
          "type": "uint256"
        },
        {
          "internalType": "enum ClaimsRegistry.Status",
          "name": "newStatus",
          "type": "uint8"
        },
        {
          "internalType": "uint16",
          "name": "fraudScore",
          "type": "uint16"
        }
      ],
      "name": "assessClaim",
      "outputs": [],
      "stateMutability": "nonpayable",
      "type": "function"
    },
    {
      "inputs": [],
      "name": "claimCount",
      "outputs": [
        {
          "internalType": "uint256",
          "name": "",
          "type": "uint256"
        }
      ],
      "stateMutability": "view",
      "type": "function"
    },
    {
      "inputs": [
        {
          "internalType": "uint256",
          "name": "claimId",
          "type": "uint256"
        }
      ],
      "name": "getClaim",
      "outputs": [
        {
          "internalType": "address",
          "name": "claimant",
          "type": "address"
        },
        {
          "internalType": "bytes32",
          "name": "claimHash",
          "type": "bytes32"
        },
        {
          "internalType": "string",
          "name": "dataPointer",
          "type": "string"
        },
        {
          "internalType": "enum ClaimsRegistry.Status",
          "name": "status",
          "type": "uint8"
        },
        {
          "internalType": "uint16",
          "name": "fraudScore",
          "type": "uint16"
        },
        {
          "internalType": "uint64",
          "name": "submittedAt",
          "type": "uint64"
        },
        {
          "internalType": "uint64",
          "name": "updatedAt",
          "type": "uint64"
        }
      ],
      "stateMutability": "view",
      "type": "function"
    },
    {
      "inputs": [
        {
          "internalType": "address",
          "name": "",
          "type": "address"
        }
      ],
      "name": "isAssessor",
      "outputs": [
        {
          "internalType": "bool",
          "name": "",
          "type": "bool"
        }
      ],
      "stateMutability": "view",
      "type": "function"
    },
    {
      "inputs": [],
      "name": "owner",
      "outputs": [
        {
          "internalType": "address",
          "name": "",
          "type": "address"
        }
      ],
      "stateMutability": "view",
      "type": "function"
    },
    {
      "inputs": [
        {
          "internalType": "address",
          "name": "assessor",
          "type": "address"
        },
        {
          "internalType": "bool",
          "name": "authorized",
          "type": "bool"
        }
      ],
      "name": "setAssessor",
      "outputs": [],
      "stateMutability": "nonpayable",
      "type": "function"
    },
    {
      "inputs": [
        {
          "internalType": "bytes32",
          "name": "claimHash",
          "type": "bytes32"
        },
        {
          "internalType": "string",
          "name": "dataPointer",
          "type": "string"
        }
      ],
      "name": "submitClaim",
      "outputs": [
        {
          "internalType": "uint256",
          "name": "claimId",
          "type": "uint256"
        }
      ],
      "stateMutability": "nonpayable",
      "type": "function"
    },
    {
      "inputs": [
        {
          "internalType": "address",
          "name": "newOwner",
          "type": "address"
        }
      ],
      "name": "transferOwnership",
      "outputs": [],
      "stateMutability": "nonpayable",
      "type": "function"
    },
    {
      "inputs": [
        {
          "internalType": "uint256",
          "name": "claimId",
          "type": "uint256"
        },
        {
          "internalType": "bytes",
          "name": "payload",
          "type": "bytes"
        }
      ],
      "name": "verifyClaimData",
      "outputs": [
        {
          "internalType": "bool",
          "name": "",
          "type": "bool"
        }
      ],
      "stateMutability": "view",
      "type": "function"
    }
  ],
  "bytecode": "0x6080604052348015600e575f5ffd5b505f80546001600160a01b0319163390811782556040519091907f8be0079c531659141344cd1fd0a4f28419497f9722a3daafe3b4186f6b6457e0908290a3610c378061005a5f395ff3fe608060405234801561000f575f5ffd5b5060043610610090575f3560e01c80638da4d3c9116100635780638da4d3c9146101195780638da5cb5b146101305780639f0f9d081461015a578063f2fde38b1461016d578063fb63346b14610180575f5ffd5b80631c7d77a1146100945780631d665bb6146100bc5780635aef2447146100d15780638843be40146100f7575b5f5ffd5b6100a76100a236600461088e565b610193565b60405190151581526020015b60405180910390f35b6100cf6100ca3660046108f1565b6101fc565b005b6100e46100df36600461092a565b6102ab565b6040516100b39796959493929190610955565b6100a76101053660046109f9565b60036020525f908152604090205460ff1681565b61012260015481565b6040519081526020016100b3565b5f54610142906001600160a01b031681565b6040516001600160a01b0390911681526020016100b3565b61012261016836600461088e565b6103e3565b6100cf61017b3660046109f9565b6105e3565b6100cf61018e366004610a19565b61068d565b5f8381526002602052604081206003810154600160981b900460ff166101d4576040516379ee13b960e11b8152600481018690526024015b60405180910390fd5b806001015484846040516101e9929190610a61565b6040518091039020149150509392505050565b5f546001600160a01b03163314610226576040516330cd747160e01b815260040160405180910390fd5b6001600160a01b03821661024d5760405163d92e233d60e01b815260040160405180910390fd5b6001600160a01b0382165f81815260036020908152604091829020805460ff191685151590811790915591519182527f500a6059abbeadd778b3e503873367c6cfed7009e2ad3ca86196143176ee6e29910160405180910390a25050565b5f818152600260205260408120600381015482916060918391829182918291600160981b900460ff166102f4576040516379ee13b960e11b8152600481018a90526024016101cb565b8054600182015460038301546002840180546001600160a01b0390941693909160ff81169161ffff6101008304169167ffffffffffffffff63010000008204811692600160581b9092041690859061034b90610a70565b80601f016020809104026020016040519081016040528092919081815260200182805461037790610a70565b80156103c25780601f10610399576101008083540402835291602001916103c2565b820191905f5260205f20905b8154815290600101906020018083116103a557829003601f168201915b50505050509450975097509750975097509750975050919395979092949650565b5f83610402576040516334acbecd60e01b815260040160405180910390fd5b6001549050604051806101000160405280336001600160a01b0316815260200185815260200184848080601f0160208091040260200160405190810160405280939291908181526020018383808284375f920182905250938552505050602080830182905260408084018390524267ffffffffffffffff16606085018190526080850152600160a0909401849052858352600280835292819020855181546001600160a01b0319166001600160a01b03909116178155918501519382019390935591830151908201906104d59082610b08565b50606082015160038201805460ff191660018360048111156104f9576104f9610941565b02179055506080820151600391909101805460a084015160c085015160e0909501516affffffffffffffffffff001990921661010061ffff909516949094026affffffffffffffff000000191693909317630100000067ffffffffffffffff948516021768ffffffffffffffffff60581b1916600160581b939094169290920260ff60981b191692909217600160981b9115159190910217905560018181019055604051339082907f0c7d747202a57ea23ec90fd2c7c48b9c96fac757d1ec9a11dabce1effc039efa906105d4908890889088904290610bc3565b60405180910390a39392505050565b5f546001600160a01b0316331461060d576040516330cd747160e01b815260040160405180910390fd5b6001600160a01b0381166106345760405163d92e233d60e01b815260040160405180910390fd5b5f80546040516001600160a01b03808516939216917f8be0079c531659141344cd1fd0a4f28419497f9722a3daafe3b4186f6b6457e091a35f80546001600160a01b0319166001600160a01b0392909216919091179055565b335f9081526003602052604090205460ff166106bc5760405163302e747b60e01b815260040160405180910390fd5b5f8381526002602052604090206003810154600160981b900460ff166106f8576040516379ee13b960e11b8152600481018590526024016101cb565b6002600382015460ff16600481111561071357610713610941565b1480610736575060038082015460ff16600481111561073457610734610941565b145b15610757576040516306fdd22960e11b8152600481018590526024016101cb565b6127108261ffff161115610784576040516327d1693360e01b815261ffff831660048201526024016101cb565b60038101805484919060ff191660018360048111156107a5576107a5610941565b021790555060038101805472ffffffffffffffff0000000000000000ffff00191661010061ffff85160267ffffffffffffffff60581b191617600160581b4267ffffffffffffffff16021790553383600481111561080557610805610941565b6040805161ffff8616815242602082015287917fcdd37d71dc24b9e4b887c4bd01ac8d2097ad1fdce01ba451c0a5a3f8085a18f8910160405180910390a450505050565b5f5f83601f840112610859575f5ffd5b50813567ffffffffffffffff811115610870575f5ffd5b602083019150836020828501011115610887575f5ffd5b9250929050565b5f5f5f604084860312156108a0575f5ffd5b83359250602084013567ffffffffffffffff8111156108bd575f5ffd5b6108c986828701610849565b9497909650939450505050565b80356001600160a01b03811681146108ec575f5ffd5b919050565b5f5f60408385031215610902575f5ffd5b61090b836108d6565b91506020830135801515811461091f575f5ffd5b809150509250929050565b5f6020828403121561093a575f5ffd5b5035919050565b634e487b7160e01b5f52602160045260245ffd5b60018060a01b038816815286602082015260e060408201525f86518060e0840152806020890161010085015e5f6101008285010152610100601f19601f830116840101915050600586106109b757634e487b7160e01b5f52602160045260245ffd5b8560608301526109cd608083018661ffff169052565b67ffffffffffffffff841660a083015267ffffffffffffffff831660c083015298975050505050505050565b5f60208284031215610a09575f5ffd5b610a12826108d6565b9392505050565b5f5f5f60608486031215610a2b575f5ffd5b83359250602084013560058110610a40575f5ffd5b9150604084013561ffff81168114610a56575f5ffd5b809150509250925092565b818382375f9101908152919050565b600181811c90821680610a8457607f821691505b602082108103610aa257634e487b7160e01b5f52602260045260245ffd5b50919050565b634e487b7160e01b5f52604160045260245ffd5b601f821115610b0357805f5260205f20601f840160051c81016020851015610ae15750805b601f840160051c820191505b81811015610b00575f8155600101610aed565b50505b505050565b815167ffffffffffffffff811115610b2257610b22610aa8565b610b3681610b308454610a70565b84610abc565b6020601f821160018114610b68575f8315610b515750848201515b5f19600385901b1c1916600184901b178455610b00565b5f84815260208120601f198516915b82811015610b975787850151825560209485019460019092019101610b77565b5084821015610bb457868401515f19600387901b60f8161c191681555b50505050600190811b01905550565b84815260606020820152826060820152828460808301375f608084830101525f6080601f19601f86011683010190508260408301529594505050505056fea2646970667358221220adfe2c1d6c9c5a690d872b2824d18f2145dbda092cfb2372e0fa445bfb88285d64736f6c634300081c0033",
  "linkReferences": {},
  "deployedLinkReferences": {},
  "immutableReferences": {},
  "inputSourceName": "project/contracts/ClaimsRegistry.sol",
  "buildInfoId": "solc-0_8_28-2773091ef30423b0652e41a9eb4eaaf38ac87907"
}